:020000040800F2
:100000000050002021020008270200082B020008EF
:100010009D020008A1020008E9020008000000009B
:100020000000000000000000000000003103000894
:100030003503000800000000390300083D030008F4
:100040004D0300084D0300084D0300084D03000850
:100050004D0300084D0300084D0300084D03000840
:100060004D0300084D0300084D0300084D03000830
:100070004D0300084D0300084D0300084D03000820
:100080004D0300084D0300084D0300084D03000810
:100090004D0300084D0300084D0300084D03000800
:1000A0004D0300084D0300084D0300084D030008F0
:1000B0004D0300084D0300084D0300084D030008E0
:1000C0004D0300084D0300084D0300084D030008D0
:1000D0004D0300084D0300084D0300084D030008C0
:1000E0004D0300084D0300084D0300080000000008
:1000F0000000000000000000000000000000000000
:1001000000000000000000005FF808F100B583B0B7
:1001100000F0ACF9304B314A1360314A1360314B77
:10012000314A03E052F8041B43F8041B2F498B4269
:10013000F8D32A4B1A682E4B9A4200D0FEE7284B80
:100140001A682C4B9A42F9D1234B2B4A13602B4A45
:1001500013602B4B02E0002243F8042B294A934200
:10016000F9D3254B1B6813B9244B1B6803B1FEE779
:1001700000F088F9694601A800F022F9224C234BCF
:10018000E41AA410002504E0204B53F825309847CA
:100190000135AC42F8DC1E4C1E4BE41AA4100025BD
:1001A00004E01C4B53F8253098470135AC42F8DC8D
:1001B0000099019800F081FD0546174C174BE41A91
:1001C000A41004E0013C154B53F824309847002C50
:1001D000F8DC284600F0D0F8BABADECA00000020E9
:1001E000840000200000002038170008880000204C
:1001F0007856341232547698880000202801002066
:10020000880000202C0100207803000878030008F3
:1002100078030008780300087803000878030008D2
:1002200008B5FFF773FF00BEFEE71EF0040F0CBF1A
:10023000EFF30880EFF309807146414A10472DE93A
:10024000F04182B004460D46124B5F6BD3F8388004
:100250009E6A1B6B13F0020F03D00E4BDB6A002B60
:100260000BDB0D4800F0B4F8009543463A463146A2
:10027000204600F00BF900BEFEE74BF6AB6100F044
:100280007FF90028EDD0034B4FF00042DA6202B054
:10029000BDE8F08100ED00E0D816000800BEFEE7E2
:1002A0001EF0040F0CBFEFF30880EFF309807146D6
:1002B000244A10472DE9F04182B004460D46084B10
:1002C0005F6BD3F838809E6A064800F081F800958D
:1002D00043463A463146204600F0D8F800BEFEE7D5
:1002E00000ED00E0E81600081EF0040F0CBFEFF36D
:1002F0000880EFF309807146134A10472DE9F04159
:1003000082B004460D46084B5F6BD3F838809E6A76
:10031000064800F05DF8009543463A4631462046CF
:1003200000F0B4F800BEFEE700ED00E0F4160008AF
:1003300000BEFEE700BEFEE700BEFEE7704700001D
:100340003F020008B5020008FD02000800BEFEE7FB
:100350003817000800000020880000203817000827
:100360000000000000000000880000202C01002098
:08037000000000000000000085
:10037800FEE7000008B503460C4A12685AB10B4A5A
:100388001068033323F003030344094A934206D851
:10039800064A136008BD054A06491160EFE700F0F8
:1003A800B3FC0C2303604FF0FF30F3E78C00002010
:1003B800004C00202C01002001230360014B0B603E
:1003C800704700BF040000200FB400B583B004AB31
:1003D80053F8042B01938021074800F0C7FC00283C
:1003E80004DC03B05DF804EB04B070470146024832
:1003F80000F034F8F5E700BF980000202DE9F0433D
:1004080085B004460F46435633BB0425284621468B
:10041800ABBE0446384605B0BDE8F08314F901CBFD
:1004280004AA1A4402F810CC0133AB42F6D304AA4A
:100438001344002203F8102C4FF00408E946404604
:100448004946ABBE8046761B002EE3D03546102EBB
:1004580028BF10250023E8E70E46F5E708B5FFF7A3
:10046800CDFF08BD08B500F0FDF8024A024B9A60BE
:1004780008BD00BF0000000800ED00E008B500F06E
:1004880019F908BDF8B504460D4617461E46274813
:10049800FFF79AFF21682648FFF796FF616825480D
:1004A800FFF792FFA1682448FFF78EFFE168234811
:1004B800FFF78AFF21692248FFF786FF6169214813
:1004C800FFF782FFA1692048FFF77EFFE1691F4817
:1004D800FFF77AFF1E48FFF777FF29461D48FFF709
:1004E80073FF1D4CE16A1D48FFF76EFF216B1C4826
:1004F800FFF76AFFE16B1B48FFF766FF15F0800FF7
:100508000AD115F4004F0CD11748FFF75DFF069983
:100518001648FFF759FFF8BD39461548FFF754FF4D
:10052800EFE731461348FFF74FFFEDE7BC1500082A
:10053800CC150008DC150008EC150008FC150008AF
:100548000C1600081C1600082C1600083C1600089B
:100558004C1600085816000800ED00E06816000860
:100568007816000888160008B8160008C016000893
:1005780098160008A816000883691A888A4201D0CC
:10058800002070470268033A012A01D90020704709
:10059800023383610120704782B0002301930093E6
:1005A8002C4A136843F4803313602A4B1B6803F406
:1005B80000330093019B01330193009B1BB9019BFE
:1005C800B3F5A06FF1D1234B1B6813F4003F06D09D
:1005D80001230093009B012B04D002B07047002335
:1005E8000093F7E71C4B1A6842F010021A601A6869
:1005F80022F003021A601A6842F002021A60A3F598
:1006080080535A685A605A685A605A6842F480623D
:100618005A605A6822F47C125A605A6842F4E81206
:100628005A601A6842F080721A600A4B1B6813F00D
:10063800007FFAD0074B5A6822F003025A605A68C2
:1006480042F002025A60034B5B6803F00C03082B6C
:10065800F9D1C2E7001002400020024008B5FFF7B8
:100668009BFF08BD08B5104B1A6842F001021A60DA
:1006780059680E4A0A405A601A6822F0847222F4B5
:1006880080321A601A6822F480221A605A6822F4AA
:10069800FE025A604FF41F029A60FFF7DFFF044B17
:1006A8004FF000629A6008BD001002400000FFF899
:1006B80000ED00E01F4B5B6803F00C03042B15D022
:1006C800082B17D01BB11C4B1C4A1A6002E01A4BAE
:1006D8001A4A1A60174B5B68C3F30313184AD35CB2
:1006E800DAB215490B68D3400B607047124B134AB6
:1006F8001A60EFE70F4A53685268C3F38343023323
:1007080012F4803F05D10F4A02FB03F30A4A136033
:10071800E0E7084A526812F4003F05D0094A02FB94
:1007280003F3054A1360D5E7044A02FB03F3024AC0
:100738001360CFE7001002401C00002000127A006E
:100748000C00002000093D00064B4FF4A022DA619E
:10075800DA6922F08042DA61DA6922F00042DA616D
:10076800704700BF00640040094B1A6842F001025C
:100778001A601A6822F002021A60054B5B6813F0CF
:10078800010F04D0024B5B6813F0020FF5D17047DC
:1007980000640040074A136823F001031360054B07
:1007A8005B6813F0010F04D0024B5B6813F0020F73
:1007B800F5D1704700640040012070476FF0704029
:1007C80070476FF07040704702207047034B4FF03E
:1007D8004862C3F84022C3F84422704700640040CE
:1007E80010B5114CD4F8003243F00103C4F80032BC
:1007F8000023C4F81C32FFF7E1FFC4F80402FFF736
:10080800E0FFC4F80C02FFF7DFFFC4F81402FFF79B
:10081800DDFFFFF7D1FFC4F81C02D4F8003223F043
:100828000103C4F8003210BD0064004008B501227D
:100838004FF00071104600F0BFF90A2201210C2088
:1008480000F0BAF8042201210B2000F0B5F8024BA1
:1008580010221A6008BD00BF0064004008B5FFF709
:10086800E5FFFFF781FFFFF76FFFFFF7B9FFFFF71E
:1008780091FF08BDA0F11A010A4B01225A54002326
:10088800094A9268C24012F0010F08D101339BB2A5
:1008980041F288329342F3D1024B00225A54014B61
:1008A800585C7047180100200064004010B50446E9
:1008B800C07BFFF7DFFF00284AD0E27B2B4B023AD0
:1008C800120100219950E27B023A03EB02125168AF
:1008D80021F00F015160E27B023A03EB02135A68E0
:1008E800217B0A435A60637B002B32D12168A27BAB
:1008F8005200E37B42EA4152023B1B011B49CA50AA
:100908002379627943EA0223A27943EA0243E1792F
:10091800E27B1A3A43EA0163144901EB0212C2F876
:100928008831237A627A43EA0223A27A43EA0243AD
:10093800E07AE27B1A3A43EA006301EB0212C2F85A
:100948008C31E37B023B1B01CA5842F00102CA50BA
:1009580010BD2168A37B5B00E27B43EA415343F06F
:100968000403023A120101498B50C9E700640040B0
:1009780010B4049C206023739DF8043063739DF8C1
:100988000830A3739DF80C30E37321710B0A63716F
:100998000B0CA371090EE1712272130A6372130C16
:1009A800A372120EE27210BC704708B5014601220C
:1009B800022000F001F908BD03290AD002290ED04F
:1009C80001290FD0022938D003295BD001290FD083
:1009D8007047A0F10D03DBB2022BF9D8EEE702282D
:1009E800EED1F5E7A0F10D03DBB2012BEAD8EFE772
:1009F80007280FD8354B196880004FF00F0C0CFAF8
:100A080000FC21EA0C011960196802FA00F0084399
:100A180018607047A0F10801C9B22C4B58688900CA
:100A28004FF00F0C0CFA01FC20EA0C0058605868D3
:100A380002FA01F101435960704707280FD8244B87
:100A4800196880004FF00F0C0CFA00FC21EA0C0129
:100A58001960196802FA00F0084318607047A0F19D
:100A68000803DBB21A4948689B004FF00F0C0CFAD8
:100A780003FC20EA0C004860486802FA03F30343C9
:100A88004B60704707280FD8124B196880004FF049
:100A98000F0C0CFA00FC21EA0C011960196802FA23
:100AA80000F00843186070470838C0B2094B59680D
:100AB80080004FF00F0C0CFA00FC21EA0C01596081
:100AC800596802FA00F00843586081E700080140BD
:100AD800000C0140001001400F2805D8022918D049
:100AE80003292AD0012900D07047012A0AD0002AF8
:100AF800FAD11C49CB68012202FA00F023EA00006F
:100B0800C86070471749CB6802FA00F01843C860FC
:100B18007047012A0AD0002AE6D11349CB6801227E
:100B280002FA00F023EA0000C86070470E49CB685B
:100B380002FA00F01843C8607047012A0AD0002A58
:100B4800D2D10A49CB68012202FA00F023EA000058
:100B5800C860C9E70549CB6802FA00F01843C860C5
:100B6800704700BF00080140000C01400010014020
:100B780001280CD0022813D000B170470D4B5A68D9
:100B880022F003025A605A68104358607047094BB4
:100B98005A6822F003025A605A6810435860704736
:100BA800044B5A6822F003025A605A68104358608E
:100BB800E3E700BF00100240012810D002281BD034
:100BC80000B17047012A05D0124A536923EA01018E
:100BD800516170470F4A5369194351617047012A9F
:100BE80005D00C4AD36923EA0101D1617047094A4B
:100BF800D3691943D1617047012A05D0054A936921
:100C080023EA01019161DCE7024A93691943916182
:100C1800704700BF00100240012811D0B0F1807F5A
:100C28001BD000B17047012905D0124A136823EA86
:100C38000000106070470F4A13681843106070472F
:100C4800012905D00B4A136823EA00001060704799
:100C5800084A1368184310607047012905D0054AEF
:100C6800136823EA00001060DCE7024A136818439F
:100C7800106070470010024008B501210846FFF7D0
:100C8800CBFF074B1B6813F4003FFAD00120FFF796
:100C98006FFF00214FF08070FFF7BEFF08BD00BF57
:100CA800001002404FF0E022136943F00103136182
:100CB800704700B589B0FFF7DFFFFFF7F3FF0420A7
:100CC800FFF773FE012211460020FFF775FE01228F
:100CD80011460020FFF700FFFFF7C0FD04AB0393A8
:100CE8001A23029300210191009102230A4637201A
:100CF800FFF73EFE4F238DF814304B238DF8153047
:100D080004A8FFF7D3FDFBE7014B1868704700BF45
:100D18002000002030B51446002C05461A469BB02A
:100D280005DA8B2303604FF0FF301BB030BD4FF462
:100D38000273ADF80C300CBF234604F1FF33029365
:100D480005934FF6FF7300910491ADF80E30694694
:100D58001E9B00F075F8431CBCBF8B232B60002C36
:100D6800E3D00022009B1A70DFE7000007B500936C
:100D780013460A46014603480068FFF7CBFF03B055
:100D88005DF804FB200000202DE9F0478E688246BC
:100D98009E420C4690461F4638D88A8912F4906FB6
:100DA80032D0256809690133A5EB010965694B440F
:100DB80005EB450505EBD5756D109D4238BF1D4601
:100DC800530531D5294600F04FFB064650B90C2390
:100DD8004FF0FF30CAF80030A38943F04003A381E5
:100DE800BDE8F0874A46216900F0CEFAA38923F4CA
:100DF800906343F08003A38126614E4426603E46FB
:100E08006561A5EB0905A560BE4200D93E4632469C
:100E18004146206800F0C6FAA36800209B1BA36027
:100E2800236833442360DBE72A4600F077FB064655
:100E38000028E1D15046216900F0CEFAC7E700004A
:100E48002DE9F04F98468B8907461B060D46144638
:100E58009DB00ED50B6963B9402100F005FB2860F1
:100E6800286120B90C233B604FF0FF30D1E04023CC
:100E78006B610023099320238DF8293030234FF02C
:100E88000109CDF80C80DFF8A4818DF82A302346BB
:100E98009A4613F8012B0AB1252AF9D1BAEB040BAB
:100EA8000BD05B46224629463846FFF76DFF0130D6
:100EB80000F0AA80099A5A4409929AF80030002B47
:100EC80000F0A28000234FF0FF32CDE905230AF19C
:100ED800010A049307938DF853301A935446052258
:100EE80014F8011B514800F041FA049AD8B9D00609
:100EF80044BF20238DF85330110744BF2B238DF8AE
:100F080053309AF800302A2B15D0544600204FF061
:100F18000A0C079A214611F8013B303B092B4ED9A0
:100F2800B0B1079214E0A0EB080309FA03F31343E6
:100F3800A2460493D2E7039B191D1B680391002B5B
:100F4800BBBF5B4242F0020207930793B8BF04920B
:100F580023782E2B0CD163782A2B35D1039B0234AE
:100F68001A1D1B680392002BB8BF4FF0FF3305937F
:100F7800DFF8BCA003225046217800F0F7F940B111
:100F88004023A0EB0A0003FA00F0049B013403435A
:100F9800049314F8011B062226488DF8281000F047
:100FA800E5F9002838D0244B1BBB039B073323F0FB
:100FB800070308330393099B3344099367E70C46F7
:100FC80001200CFB0232A5E700234FF00A0C19465A
:100FD80001340593204610F8012B303A092A03D929
:100FE800002BC5D00591C3E7044601230CFB012162
:100FF800F0E703AB00932A463846104B04A9AFF339
:101008000080421C0646D6D1AB895B063FF52CAF63
:1010180009981DB0BDE8F08F03AB00932A46384607
:10102800064B04A900F07CF8EBE700BF02170008A4
:10103800081700080C17000800000000910D0008B0
:101048002DE9F047164699468A680B690746934288
:10105800B8BF1346336091F843200C46DDF8208072
:101068000AB1013333602368990642BF33680233FB
:101078003360256815F0060506D104F1190AE368FE
:1010880032689B1AAB4228DC94F84320131E22686E
:1010980018BF012392062DD44946384604F143026D
:1010A800C047013020D02368E56803F00603042B0D
:1010B80018BF002532684FF00006A36808BFAD1AB4
:1010C800226908BF25EAE5759342C4BF9B1AED184B
:1010D8001A34B5421AD1002008E001235246494685
:1010E8003846C047013003D14FF0FF30BDE8F087E4
:1010F8000135C4E73020E11881F843005A1C94F800
:1011080045102244023382F84310C5E701232246E2
:1011180049463846C0470130E6D00136D9E70000D5
:101128002DE9FF470F7E9146782F80460C469A4658
:101138000C9D01F1430207D8622F0AD8002F00F056
:10114800D980582F00F0A48004F1420584F8427039
:101158003AE0A7F16303152BF6D801A151F823F063
:10116800C1110008D51100085111000851110008DB
:101178005111000851110008D5110008511100083B
:10118800511100085111000851110008E31200081C
:1011980005120008C5120008511100085111000875
:1011A8000513000851110008051200085111000824
:1011B80051110008CD1200082B681A1D1B682A60FF
:1011C80004F1420584F842300123A4E0206829682C
:1011D800060601F104030AD50E682B60002E03DA17
:1011E8002D23764284F843300A235E4819E00E68BE
:1011F80010F0400F2B6018BF36B2EFE72B6820685D
:10120800191D2960010601D51E6802E04606FBD5B6
:101218001E886F2F0CBF08230A235248002184F828
:1012280043106568002DA8BF2168A560A4BF21F000
:10123800040121600EB9002D4DD01546B6FBF3F11F
:1012480003FB1167C75D05F8017D3746BB420E46B3
:10125800F4D9082B0BD12368DE0708D52369616808
:101268009942DEBF302305F8013C05F1FF35521BDA
:1012780022614B4621464046CDF800A003AAFFF75D
:10128800DFFE01304CD14FF0FF3004B0BDE8F087ED
:10129800344881F845702968236851F8046B29603F
:1012A8001D0614D5DF0744BF43F0200323601EB991
:1012B800236823F0200323601023AFE7236843F05B
:1012C800200323607823284884F84530E3E759064B
:1012D80048BFB6B2E6E71546BBE72B682668181D77
:1012E8006169286035061B6801D5196002E070063F
:1012F800FBD51980002315462361BAE72B68002126
:101308001A1D2A601D686268284600F02FF808B187
:10131800401B606063682361002384F84330A8E7BA
:101328002A46494640462369D0470130ABD0236856
:101338009B0713D4E068039B9842B8BF1846A4E7FC
:101348000123324649464046D04701309BD00135FB
:10135800E36803995B1AAB42F2DCEBE7002504F182
:101368001906F5E71317000824170008034610B5F7
:10137800C9B202449342184601D1002003E0047820
:1013880001338C42F6D110BD0A44914200F1FF337B
:1013980000D1704710B511F8014B914203F8014F85
:1013A800F9D110BD884210B501EB020402D984427C
:1013B800234607D8431EA14208D011F8012B03F891
:1013C800012FF8E7014602448A4200D110BD13F804
:1013D800014D02F8014DF7E738B50546002940D020
:1013E80051F8043C0C1F002BB8BFE41800F0CCF8EF
:1013F8001C4A136833B9636014602846BDE8384056
:1014080000F0C8B8A34208D9206821188B4201BF50
:1014180019685B6809182160EDE71A465B680BB12B
:10142800A342FAD911685018A0420BD12068014490
:10143800501883421160E0D118685B68014411605C
:101448005360DAE702D90C232B60D6E7206821180D
:101458008B4201BF19685B6809182160636054609A
:10146800CBE738BD1C010020F8B5CD1C25F00305DD
:1014780008350C2D38BF0C25002D064601DBA94286
:1014880003D90C2333600020F8BD00F07DF8214912
:101498000A6814469CB9204F3B6823B92146304658
:1014A80000F062F838602946304600F05DF8431CC9
:1014B80023D10C233046336000F06CF8E3E723684F
:1014C8005B1B17D40B2B03D923601C44256004E055
:1014D8006368A2420CBF0B605360304600F05AF8B4
:1014E80004F10B00231D20F00700C21ACCD01B1AF0
:1014F800A350C9E722466468CCE7C41C24F003045F
:10150800A042E3D0211A304600F02EF80130DDD198
:10151800CFE700BF1C01002020010020F8B50746D6
:1015280014460E4621B91146BDE8F840FFF79CBFA6
:1015380022B9FFF751FF25462846F8BD00F030F8DC
:10154800A0420FD221463846FFF78EFF05460028F5
:10155800F2D031462246FFF717FF31463846FFF7EB
:101568003BFFE9E73546E7E738B50023054D044674
:1015780008462B60FEF7FEFE431C02D12B6803B120
:10158800236038BD90000020014800F011B800BF6A
:1015980024010020014800F00CB800BF24010020FD
:1015A80051F8043C181F002BBCBF0B58C0187047DB
:1015B80070477047537461636B206672616D653A5A
:1015C8000A000000205230203D2020253038580ADB
:1015D80000000000205231203D2020253038580AD4
:1015E80000000000205232203D2020253038580AC3
:1015F80000000000205233203D2020253038580AB2
:101608000000000020523132203D20253038580A91
:1016180000000000204C52203D2020253038580A78
:1016280000000000205043203D2020253038580A73
:101638000000000020505352203D20253038580A21
:10164800000000004653522F4641523A0A0000005B
:101658002043465352203D2020253038580A0000A8
:101668002048465352203D2020253038580A000093
:101678002044465352203D2020253038580A000087
:101688002041465352203D2020253038580A00007A
:10169800204D4D464152203D20253038580A000043
:1016A8002042464152203D2020253038580A00006B
:1016B8004D6973630A000000204C522F4558435F60
:1016C80052455455524E3D20253038580A000000E6
:1016D8005B486172644661756C745D0A00000000C5
:1016E8005B4275734661756C745D0A005B55736186
:1016F80067654661756C745D0A00232D302B2000E8
:10170800686C4C00656667454647003031323334B3
:101718003536373839414243444546003031323353
:0D1728003435363738396162636465660018
:1017380078563412940000200000000000000000D9
:1017480000000000010203040607080900A24A0479
:10175800240000200000000000000000000000003D
:101768000000000000000000000000000000000071
:101778000000000000000000000000000000000061
:101788000000000000000000000000000000000051
:101798000000000000000000000000000000000041
:1017A8000000000000000000000000000000000031
:0817B800000000003254769895
:040000050800010DE1
:00000001FF
